{
  "_format": "hh3-artifact-1",
  "contractName": "RevocationRegistry",
  "sourceName": "contracts/RevocationRegistry.sol",
  "abi": [
    {
      "inputs": [
        {
          "internalType": "address",
          "name": "_issuer",
          "type": "address"
        }
      ],
      "stateMutability": "nonpayable",
      "type": "constructor"
    },
    {
      "anonymous": false,
      "inputs": [
        {
          "indexed": true,
          "internalType": "bytes32",
          "name": "credentialHash",
          "type": "bytes32"
        }
      ],
      "name": "CredentialRevoked",
      "type": "event"
    },
    {
      "inputs": [
        {
          "internalType": "bytes32",
          "name": "credentialHash",
          "type": "bytes32"
        }
      ],
      "name": "isRevoked",
      "outputs": [
        {
          "internalType": "bool",
          "name": "",
          "type": "bool"
        }
      ],
      "stateMutability": "view",
      "type": "function"
    },
    {
      "inputs": [],
      "name": "issuer",
      "outputs": [
        {
          "internalType": "address",
          "name": "",
          "type": "address"
        }
      ],
      "stateMutability": "view",
      "type": "function"
    },
    {
      "inputs": [
        {
          "internalType": "bytes32",
          "name": "credentialHash",
          "type": "bytes32"
        }
      ],
      "name": "revoke",
      "outputs": [],
      "stateMutability": "nonpayable",
      "type": "function"
    },
    {
      "inputs": [
        {
          "internalType": "bytes32",
          "name": "",
          "type": "bytes32"
        }
      ],
      "name": "revoked",
      "outputs": [
        {
          "internalType": "bool",
          "name": "",
          "type": "bool"
        }
      ],
      "stateMutability": "view",
      "type": "function"
    }
  ],
  "bytecode": "0x6080604052348015600e575f5ffd5b5060405161026a38038061026a833981016040819052602b91604e565b5f80546001600160a01b0319166001600160a01b03929092169190911790556079565b5f60208284031215605d575f5ffd5b81516001600160a01b03811681146072575f5ffd5b9392505050565b6101e4806100865f395ff3fe608060405234801561000f575f5ffd5b506004361061004a575f3560e01c80631d1438481461004e578063328a93e81461007d5780634294857f146100af578063b75c7dc6146100d1575b5f5ffd5b5f54610060906001600160a01b031681565b6040516001600160a01b0390911681526020015b60405180910390f35b61009f61008b366004610197565b60016020525f908152604090205460ff1681565b6040519015158152602001610074565b61009f6100bd366004610197565b5f9081526001602052604090205460ff1690565b6100e46100df366004610197565b6100e6565b005b5f546001600160a01b031633146101525760405162461bcd60e51b815260206004820152602660248201527f4f6e6c7920746865206973737565722063616e207265766f6b652063726564656044820152656e7469616c7360d01b606482015260840160405180910390fd5b5f818152600160208190526040808320805460ff19169092179091555182917f3cc2375f3fc7711ba27361cde93880f578742f9f050acee766bed662d117ba7291a250565b5f602082840312156101a7575f5ffd5b503591905056fea264697066735822122029a69e554136b450258d9352c6302821ba44af3448b178291a3f01b183a4ae9b64736f6c634300081c0033",
  "linkReferences": {},
  "deployedLinkReferences": {},
  "immutableReferences": {},
  "inputSourceName": "project/contracts/RevocationRegistry.sol",
  "buildInfoId": "solc-0_8_28-c00356bc56e7c94a6878e46f46414fc91e128c69"
}